{
  "_format": "hh3-artifact-1",
  "contractName": "MeMeToken",
  "sourceName": "contracts/MeMeToken.sol",
  "abi": [
    {
      "inputs": [
        {
          "internalType": "string",
          "name": "name",
          "type": "string"
        },
        {
          "internalType": "string",
          "name": "symbol",
          "type": "string"
        },
        {
          "internalType": "uint256",
          "name": "initialSupply",
          "type": "uint256"
        },
        {
          "internalType": "address",
          "name": "uniswapRouter",
          "type": "address"
        }
      ],
      "stateMutability": "nonpayable",
      "type": "constructor"
    },
    {
      "inputs": [
        {
          "internalType": "address",
          "name": "spender",
          "type": "address"
        },
        {
          "internalType": "uint256",
          "name": "allowance",
          "type": "uint256"
        },
        {
          "internalType": "uint256",
          "name": "needed",
          "type": "uint256"
        }
      ],
      "name": "ERC20InsufficientAllowance",
      "type": "error"
    },
    {
      "inputs": [
        {
          "internalType": "address",
          "name": "sender",
          "type": "address"
        },
        {
          "internalType": "uint256",
          "name": "balance",
          "type": "uint256"
        },
        {
          "internalType": "uint256",
          "name": "needed",
          "type": "uint256"
        }
      ],
      "name": "ERC20InsufficientBalance",
      "type": "error"
    },
    {
      "inputs": [
        {
          "internalType": "address",
          "name": "approver",
          "type": "address"
        }
      ],
      "name": "ERC20InvalidApprover",
      "type": "error"
    },
    {
      "inputs": [
        {
          "internalType": "address",
          "name": "receiver",
          "type": "address"
        }
      ],
      "name": "ERC20InvalidReceiver",
      "type": "error"
    },
    {
      "inputs": [
        {
          "internalType": "address",
          "name": "sender",
          "type": "address"
        }
      ],
      "name": "ERC20InvalidSender",
      "type": "error"
    },
    {
      "inputs": [
        {
          "internalType": "address",
          "name": "spender",
          "type": "address"
        }
      ],
      "name": "ERC20InvalidSpender",
      "type": "error"
    },
    {
      "inputs": [
        {
          "internalType": "address",
          "name": "owner",
          "type": "address"
        }
      ],
      "name": "OwnableInvalidOwner",
      "type": "error"
    },
    {
      "inputs": [
        {
          "internalType": "address",
          "name": "account",
          "type": "address"
        }
      ],
      "name": "OwnableUnauthorizedAccount",
      "type": "error"
    },
    {
      "anonymous": false,
      "inputs": [
        {
          "indexed": true,
          "internalType": "address",
          "name": "owner",
          "type": "address"
        },
        {
          "indexed": true,
          "internalType": "address",
          "name": "spender",
          "type": "address"
        },
        {
          "indexed": false,
          "internalType": "uint256",
          "name": "value",
          "type": "uint256"
        }
      ],
      "name": "Approval",
      "type": "event"
    },
    {
      "anonymous": false,
      "inputs": [
        {
          "indexed": false,
          "internalType": "uint256",
          "name": "tokenAmount",
          "type": "uint256"
        },
        {
          "indexed": false,
          "internalType": "uint256",
          "name": "ethAmount",
          "type": "uint256"
        }
      ],
      "name": "LiquidityAdded",
      "type": "event"
    },
    {
      "anonymous": false,
      "inputs": [
        {
          "indexed": true,
          "internalType": "address",
          "name": "previousOwner",
          "type": "address"
        },
        {
          "indexed": true,
          "internalType": "address",
          "name": "newOwner",
          "type": "address"
        }
      ],
      "name": "OwnershipTransferred",
      "type": "event"
    },
    {
      "anonymous": false,
      "inputs": [
        {
          "indexed": false,
          "internalType": "uint256",
          "name": "marketingAmount",
          "type": "uint256"
        },
        {
          "indexed": false,
          "internalType": "uint256",
          "name": "liquidityAmount",
          "type": "uint256"
        },
        {
          "indexed": false,
          "internalType": "uint256",
          "name": "taxWalletAmount",
          "type": "uint256"
        }
      ],
      "name": "TaxDistribution",
      "type": "event"
    },
    {
      "anonymous": false,
      "inputs": [
        {
          "indexed": false,
          "internalType": "uint256",
          "name": "buyTax",
          "type": "uint256"
        },
        {
          "indexed": false,
          "internalType": "uint256",
          "name": "sellTax",
          "type": "uint256"
        },
        {
          "indexed": false,
          "internalType": "uint256",
          "name": "transferTax",
          "type": "uint256"
        }
      ],
      "name": "TaxUpdated",
      "type": "event"
    },
    {
      "anonymous": false,
      "inputs": [
        {
          "indexed": false,
          "internalType": "uint256",
          "name": "maxTransactionAmount",
          "type": "uint256"
        },
        {
          "indexed": false,
          "internalType": "uint256",
          "name": "maxWalletBalance",
          "type": "uint256"
        },
        {
          "indexed": false,
          "internalType": "uint256",
          "name": "cooldownPeriod",
          "type": "uint256"
        }
      ],
      "name": "TransactionLimitsUpdated",
      "type": "event"
    },
    {
      "anonymous": false,
      "inputs": [
        {
          "indexed": true,
          "internalType": "address",
          "name": "from",
          "type": "address"
        },
        {
          "indexed": true,
          "internalType": "address",
          "name": "to",
          "type": "address"
        },
        {
          "indexed": false,
          "internalType": "uint256",
          "name": "value",
          "type": "uint256"
        }
      ],
      "name": "Transfer",
      "type": "event"
    },
    {
      "inputs": [
        {
          "internalType": "address",
          "name": "owner",
          "type": "address"
        },
        {
          "internalType": "address",
          "name": "spender",
          "type": "address"
        }
      ],
      "name": "allowance",
      "outputs": [
        {
          "internalType": "uint256",
          "name": "",
          "type": "uint256"
        }
      ],
      "stateMutability": "view",
      "type": "function"
    },
    {
      "inputs": [
        {
          "internalType": "address",
          "name": "spender",
          "type": "address"
        },
        {
          "internalType": "uint256",
          "name": "value",
          "type": "uint256"
        }
      ],
      "name": "approve",
      "outputs": [
        {
          "internalType": "bool",
          "name": "",
          "type": "bool"
        }
      ],
      "stateMutability": "nonpayable",
      "type": "function"
    },
    {
      "inputs": [
        {
          "internalType": "address",
          "name": "account",
          "type": "address"
        }
      ],
      "name": "balanceOf",
      "outputs": [
        {
          "internalType": "uint256",
          "name": "",
          "type": "uint256"
        }
      ],
      "stateMutability": "view",
      "type": "function"
    },
    {
      "inputs": [],
      "name": "burnedTax",
      "outputs": [
        {
          "internalType": "uint256",
          "name": "",
          "type": "uint256"
        }
      ],
      "stateMutability": "view",
      "type": "function"
    },
    {
      "inputs": [],
      "name": "buyTax",
      "outputs": [
        {
          "internalType": "uint256",
          "name": "",
          "type": "uint256"
        }
      ],
      "stateMutability": "view",
      "type": "function"
    },
    {
      "inputs": [],
      "name": "cooldownPeriod",
      "outputs": [
        {
          "internalType": "uint256",
          "name": "",
          "type": "uint256"
        }
      ],
      "stateMutability": "view",
      "type": "function"
    },
    {
      "inputs": [],
      "name": "decimals",
      "outputs": [
        {
          "internalType": "uint8",
          "name": "",
          "type": "uint8"
        }
      ],
      "stateMutability": "view",
      "type": "function"
    },
    {
      "inputs": [],
      "name": "emergencyPause",
      "outputs": [],
      "stateMutability": "nonpayable",
      "type": "function"
    },
    {
      "inputs": [
        {
          "internalType": "uint256",
          "name": "maxTx",
          "type": "uint256"
        },
        {
          "internalType": "uint256",
          "name": "cooldown",
          "type": "uint256"
        }
      ],
      "name": "emergencyUnpause",
      "outputs": [],
      "stateMutability": "nonpayable",
      "type": "function"
    },
    {
      "inputs": [
        {
          "internalType": "address",
          "name": "account",
          "type": "address"
        },
        {
          "internalType": "bool",
          "name": "excluded",
          "type": "bool"
        }
      ],
      "name": "excludeFromLimits",
      "outputs": [],
      "stateMutability": "nonpayable",
      "type": "function"
    },
    {
      "inputs": [
        {
          "internalType": "address",
          "name": "account",
          "type": "address"
        },
        {
          "internalType": "bool",
          "name": "excluded",
          "type": "bool"
        }
      ],
      "name": "excludeFromTax",
      "outputs": [],
      "stateMutability": "nonpayable",
      "type": "function"
    },
    {
      "inputs": [
        {
          "internalType": "address",
          "name": "",
          "type": "address"
        }
      ],
      "name": "isExcludedFromLimits",
      "outputs": [
        {
          "internalType": "bool",
          "name": "",
          "type": "bool"
        }
      ],
      "stateMutability": "view",
      "type": "function"
    },
    {
      "inputs": [
        {
          "internalType": "address",
          "name": "",
          "type": "address"
        }
      ],
      "name": "isExcludedFromTax",
      "outputs": [
        {
          "internalType": "bool",
          "name": "",
          "type": "bool"
        }
      ],
      "stateMutability": "view",
      "type": "function"
    },
    {
      "inputs": [
        {
          "internalType": "address",
          "name": "",
          "type": "address"
        }
      ],
      "name": "isWhitelistedPair",
      "outputs": [
        {
          "internalType": "bool",
          "name": "",
          "type": "bool"
        }
      ],
      "stateMutability": "view",
      "type": "function"
    },
    {
      "inputs": [],
      "name": "liquidityTax",
      "outputs": [
        {
          "internalType": "uint256",
          "name": "",
          "type": "uint256"
        }
      ],
      "stateMutability": "view",
      "type": "function"
    },
    {
      "inputs": [],
      "name": "liquidityWallet",
      "outputs": [
        {
          "internalType": "address",
          "name": "",
          "type": "address"
        }
      ],
      "stateMutability": "view",
      "type": "function"
    },
    {
      "inputs": [],
      "name": "maxTransactionAmount",
      "outputs": [
        {
          "internalType": "uint256",
          "name": "",
          "type": "uint256"
        }
      ],
      "stateMutability": "view",
      "type": "function"
    },
    {
      "inputs": [],
      "name": "maxWalletBalance",
      "outputs": [
        {
          "internalType": "uint256",
          "name": "",
          "type": "uint256"
        }
      ],
      "stateMutability": "view",
      "type": "function"
    },
    {
      "inputs": [],
      "name": "name",
      "outputs": [
        {
          "internalType": "string",
          "name": "",
          "type": "string"
        }
      ],
      "stateMutability": "view",
      "type": "function"
    },
    {
      "inputs": [],
      "name": "owner",
      "outputs": [
        {
          "internalType": "address",
          "name": "",
          "type": "address"
        }
      ],
      "stateMutability": "view",
      "type": "function"
    },
    {
      "inputs": [],
      "name": "recipientTax",
      "outputs": [
        {
          "internalType": "uint256",
          "name": "",
          "type": "uint256"
        }
      ],
      "stateMutability": "view",
      "type": "function"
    },
    {
      "inputs": [],
      "name": "renounceOwnership",
      "outputs": [],
      "stateMutability": "nonpayable",
      "type": "function"
    },
    {
      "inputs": [],
      "name": "sellTax",
      "outputs": [
        {
          "internalType": "uint256",
          "name": "",
          "type": "uint256"
        }
      ],
      "stateMutability": "view",
      "type": "function"
    },
    {
      "inputs": [
        {
          "internalType": "uint256",
          "name": "newBuyRate",
          "type": "uint256"
        },
        {
          "internalType": "uint256",
          "name": "newSellRate",
          "type": "uint256"
        },
        {
          "internalType": "uint256",
          "name": "newTransferRate",
          "type": "uint256"
        }
      ],
      "name": "setTaxRate",
      "outputs": [],
      "stateMutability": "nonpayable",
      "type": "function"
    },
    {
      "inputs": [
        {
          "internalType": "address",
          "name": "newRecipient",
          "type": "address"
        }
      ],
      "name": "setTaxRecipient",
      "outputs": [],
      "stateMutability": "nonpayable",
      "type": "function"
    },
    {
      "inputs": [
        {
          "internalType": "uint256",
          "name": "maxTxAmount",
          "type": "uint256"
        },
        {
          "internalType": "uint256",
          "name": "maxWalletAmt",
          "type": "uint256"
        },
        {
          "internalType": "uint256",
          "name": "cooldownSec",
          "type": "uint256"
        }
      ],
      "name": "setTransactionLimits",
      "outputs": [],
      "stateMutability": "nonpayable",
      "type": "function"
    },
    {
      "inputs": [],
      "name": "symbol",
      "outputs": [
        {
          "internalType": "string",
          "name": "",
          "type": "string"
        }
      ],
      "stateMutability": "view",
      "type": "function"
    },
    {
      "inputs": [],
      "name": "taxRecipient",
      "outputs": [
        {
          "internalType": "address",
          "name": "",
          "type": "address"
        }
      ],
      "stateMutability": "view",
      "type": "function"
    },
    {
      "inputs": [],
      "name": "totalSupply",
      "outputs": [
        {
          "internalType": "uint256",
          "name": "",
          "type": "uint256"
        }
      ],
      "stateMutability": "view",
      "type": "function"
    },
    {
      "inputs": [
        {
          "internalType": "address",
          "name": "to",
          "type": "address"
        },
        {
          "internalType": "uint256",
          "name": "value",
          "type": "uint256"
        }
      ],
      "name": "transfer",
      "outputs": [
        {
          "internalType": "bool",
          "name": "",
          "type": "bool"
        }
      ],
      "stateMutability": "nonpayable",
      "type": "function"
    },
    {
      "inputs": [
        {
          "internalType": "address",
          "name": "from",
          "type": "address"
        },
        {
          "internalType": "address",
          "name": "to",
          "type": "address"
        },
        {
          "internalType": "uint256",
          "name": "value",
          "type": "uint256"
        }
      ],
      "name": "transferFrom",
      "outputs": [
        {
          "internalType": "bool",
          "name": "",
          "type": "bool"
        }
      ],
      "stateMutability": "nonpayable",
      "type": "function"
    },
    {
      "inputs": [
        {
          "internalType": "address",
          "name": "newOwner",
          "type": "address"
        }
      ],
      "name": "transferOwnership",
      "outputs": [],
      "stateMutability": "nonpayable",
      "type": "function"
    },
    {
      "inputs": [],
      "name": "transferTax",
      "outputs": [
        {
          "internalType": "uint256",
          "name": "",
          "type": "uint256"
        }
      ],
      "stateMutability": "view",
      "type": "function"
    },
    {
      "inputs": [],
      "name": "uniswapV2Pair",
      "outputs": [
        {
          "internalType": "address",
          "name": "",
          "type": "address"
        }
      ],
      "stateMutability": "view",
      "type": "function"
    },
    {
      "inputs": [],
      "name": "uniswapV2Router",
      "outputs": [
        {
          "internalType": "contract IUniswapV2Router02",
          "name": "",
          "type": "address"
        }
      ],
      "stateMutability": "view",
      "type": "function"
    }
  ],
  "bytecode": "0x60a06040526014600b55603c600c556014600d5569d3c21bcecceda1000000600e556a0422ca8b0a00a425000000600f5561012c601055348015610041575f5ffd5b50604051611ca2380380611ca2833981016040819052610060916104e4565b338484600361006f83826105e6565b50600461007c82826105e6565b5050506001600160a01b0381166100ad57604051631e4fbdf760e01b81525f60048201526024015b60405180910390fd5b6100b68161027d565b506005600655600a600755600260085560098054336001600160a01b031991821681179092556015805490911690911790556001600160a01b03811660808190526040805163c45a015560e01b8152905163c45a0155916004808201926020929091908290030181865afa158015610130573d5f5f3e3d5ffd5b505050506040513d601f19601f8201168201806040525081019061015491906106a0565b6001600160a01b031663c9c65396306080516001600160a01b031663ad5c46486040518163ffffffff1660e01b8152600401602060405180830381865afa1580156101a1573d5f5f3e3d5ffd5b505050506040513d601f19601f820116820180604052508101906101c591906106a0565b6040516001600160e01b031960e085901b1681526001600160a01b039283166004820152911660248201526044016020604051808303815f875af115801561020f573d5f5f3e3d5ffd5b505050506040513d601f19601f8201168201806040525081019061023391906106a0565b601380546001600160a01b0319166001600160a01b039290921691821790555f908152601460205260409020805460ff1916600117905561027433836102ce565b505050506106e5565b600580546001600160a01b038381166001600160a01b0319831681179093556040519116919082907f8be0079c531659141344cd1fd0a4f28419497f9722a3daafe3b4186f6b6457e0905f90a35050565b6001600160a01b0382166102f75760405163ec442f0560e01b81525f60048201526024016100a4565b6103025f8383610306565b5050565b6001600160a01b038316610330578060025f82825461032591906106c0565b909155506103a09050565b6001600160a01b0383165f90815260208190526040902054818110156103825760405163391434e360e21b81526001600160a01b038516600482015260248101829052604481018390526064016100a4565b6001600160a01b0384165f9081526020819052604090209082900390555b6001600160a01b0382166103bc576002805482900390556103da565b6001600160a01b0382165f9081526020819052604090208054820190555b816001600160a01b0316836001600160a01b03167fddf252ad1be2c89b69c2b068fc378daa952ba7f163c4a11628f55a4df523b3ef8360405161041f91815260200190565b60405180910390a3505050565b634e487b7160e01b5f52604160045260245ffd5b5f82601f83011261044f575f5ffd5b81516001600160401b038111156104685761046861042c565b604051601f8201601f19908116603f011681016001600160401b03811182821017156104965761049661042c565b6040528181528382016020018510156104ad575f5ffd5b8160208501602083015e5f918101602001919091529392505050565b80516001600160a01b03811681146104df575f5ffd5b919050565b5f5f5f5f608085870312156104f7575f5ffd5b84516001600160401b0381111561050c575f5ffd5b61051887828801610440565b602087015190955090506001600160401b03811115610535575f5ffd5b61054187828801610440565b93505060408501519150610557606086016104c9565b905092959194509250565b600181811c9082168061057657607f821691505b60208210810361059457634e487b7160e01b5f52602260045260245ffd5b50919050565b601f8211156105e157805f5260205f20601f840160051c810160208510156105bf5750805b601f840160051c820191505b818110156105de575f81556001016105cb565b50505b505050565b81516001600160401b038111156105ff576105ff61042c565b6106138161060d8454610562565b8461059a565b6020601f821160018114610645575f831561062e5750848201515b5f19600385901b1c1916600184901b1784556105de565b5f84815260208120601f198516915b828110156106745787850151825560209485019460019092019101610654565b508482101561069157868401515f19600387901b60f8161c191681555b50505050600190811b01905550565b5f602082840312156106b0575f5ffd5b6106b9826104c9565b9392505050565b808201808211156106df57634e487b7160e01b5f52601160045260245ffd5b92915050565b60805161159e6107045f395f81816102650152610d96015261159e5ff3fe608060405234801561000f575f5ffd5b5060043610610208575f3560e01c80638124f7ac1161011f578063c0a904a2116100a9578063cc1776d311610079578063cc1776d314610463578063d46980161461046c578063dd62ed3e1461047f578063e7e7ec04146104b7578063f2fde38b146104c0575f5ffd5b8063c0a904a214610412578063c6a3064714610425578063c8c8ebe414610438578063cb4ca63114610441575f5ffd5b80639cc35351116100ef5780639cc35351146103c7578063a9059cbb146103da578063bbde77c1146103ed578063be617fa0146103f6578063bf938897146103ff575f5ffd5b80638124f7ac146103925780638da5cb5b1461039b5780638e1e4d54146103ac57806395d89b41146103bf575f5ffd5b806349bd5a5e116101a05780635cce86cd116101705780635cce86cd1461031a57806370a082311461033c578063715018a614610364578063737ea06e1461036c57806378e3079e1461037f575f5ffd5b806349bd5a5e146102d25780634efcdeed146102e55780634f7041a51461030757806351858e2714610310575f5ffd5b806318160ddd116101db57806318160ddd1461029f57806323b872dd146102a7578063313ce567146102ba578063461d2b32146102c9575f5ffd5b806304646a491461020c57806306fdde0314610228578063095ea7b31461023d5780631694505e14610260575b5f5ffd5b61021560105481565b6040519081526020015b60405180910390f35b6102306104d3565b60405161021f9190611342565b61025061024b366004611392565b610563565b604051901515815260200161021f565b6102877f000000000000000000000000000000000000000000000000000000000000000081565b6040516001600160a01b03909116815260200161021f565b600254610215565b6102506102b53660046113ba565b61057c565b6040516012815260200161021f565b610215600b5481565b601354610287906001600160a01b031681565b6102506102f33660046113f4565b60146020525f908152604090205460ff1681565b61021560065481565b6103186106d0565b005b6102506103283660046113f4565b60126020525f908152604090205460ff1681565b61021561034a3660046113f4565b6001600160a01b03165f9081526020819052604090205490565b6103186106e3565b600954610287906001600160a01b031681565b61031861038d3660046113f4565b6106f6565b61021560085481565b6005546001600160a01b0316610287565b6103186103ba36600461140d565b610768565b61023061077b565b6103186103d536600461142d565b61078a565b6102506103e8366004611392565b6108d5565b610215600f5481565b610215600c5481565b61031861040d36600461142d565b610a14565b610318610420366004611456565b610ac7565b610318610433366004611456565b610af9565b610215600e5481565b61025061044f3660046113f4565b600a6020525f908152604090205460ff1681565b61021560075481565b601554610287906001600160a01b031681565b61021561048d36600461148f565b6001600160a01b039182165f90815260016020908152604080832093909416825291909152205490565b610215600d5481565b6103186104ce3660046113f4565b610b2b565b6060600380546104e2906114c0565b80601f016020809104026020016040519081016040528092919081815260200182805461050e906114c0565b80156105595780601f1061053057610100808354040283529160200191610559565b820191905f5260205f20905b81548152906001019060200180831161053c57829003601f168201915b5050505050905090565b5f33610570818585610b68565b60019150505b92915050565b6001600160a01b0383165f9081526012602052604081205460ff161580156105bc57506001600160a01b0383165f9081526012602052604090205460ff16155b156105cc576105cc848484610b7a565b6001600160a01b0384165f908152601160209081526040808320429055338352600a90915290205460ff168061061957506001600160a01b0383165f908152600a602052604090205460ff165b8061062357503330145b1561063a57610633848484610e4a565b90506106c9565b6001600160a01b0383166106915760405162461bcd60e51b8152602060048201526019602482015278496e76616c696420726563697069656e74206164647265737360381b60448201526064015b60405180910390fd5b5f61069d858585610e62565b90505f6106aa828561150c565b90506106b7868683610e4a565b506106c28683610ecd565b6001925050505b9392505050565b6106d8610fb3565b5f600e555f19601055565b6106eb610fb3565b6106f45f610fe0565b565b6106fe610fb3565b6001600160a01b0381166107465760405162461bcd60e51b815260206004820152600f60248201526e496e76616c6964206164647265737360881b6044820152606401610688565b600980546001600160a01b0319166001600160a01b0392909216919091179055565b610770610fb3565b600e91909155601055565b6060600480546104e2906114c0565b610792610fb3565b5f83116107e15760405162461bcd60e51b815260206004820152601e60248201527f496e76616c6964206d6178207472616e73616374696f6e20616d6f756e7400006044820152606401610688565b5f82116108305760405162461bcd60e51b815260206004820152601960248201527f496e76616c6964206d61782077616c6c657420616d6f756e74000000000000006044820152606401610688565b5f811161087f5760405162461bcd60e51b815260206004820152601760248201527f496e76616c696420636f6f6c646f776e20706572696f640000000000000000006044820152606401610688565b600e839055600f829055601081905560408051848152602081018490529081018290527f1b2dbdd46d1f85f3b60eb75cd93f4aeb71ce8490b8e3b3f2e2aa835faa34a781906060015b60405180910390a1505050565b335f9081526012602052604081205460ff1615801561090c57506001600160a01b0383165f9081526012602052604090205460ff16155b1561091c5761091c338484610b7a565b335f9081526011602052604090204290556001600160a01b03831661097f5760405162461bcd60e51b8152602060048201526019602482015278496e76616c696420726563697069656e74206164647265737360381b6044820152606401610688565b335f908152600a602052604090205460ff16806109b357506001600160a01b0383165f908152600a602052604090205460ff165b806109bd57503330145b156109d3576109cc8383611031565b9050610576565b5f6109df338585610e62565b90505f6109ec828561150c565b90506109f88582611031565b508115610a0957610a093383610ecd565b506001949350505050565b610a1c610fb3565b601e81610a29848661151f565b610a33919061151f565b1115610a7a5760405162461bcd60e51b81526020600482015260166024820152750536861726573206d7573742073756d20746f203130360541b6044820152606401610688565b60068390556007829055600881905560408051848152602081018490529081018290527fad292e707e8a094bdd1cff9ec5263d8e4e538d8e6e457c032a2dbf7174ebec4b906060016108c8565b610acf610fb3565b6001600160a01b03919091165f908152601260205260409020805460ff1916911515919091179055565b610b01610fb3565b6001600160a01b03919091165f908152600a60205260409020805460ff1916911515919091179055565b610b33610fb3565b6001600160a01b038116610b5c57604051631e4fbdf760e01b81525f6004820152602401610688565b610b6581610fe0565b50565b610b75838383600161103e565b505050565b5f8111610bdb5760405162461bcd60e51b815260206004820152602960248201527f5472616e7366657220616d6f756e74206d7573742062652067726561746572206044820152687468616e207a65726f60b81b6064820152608401610688565b6001600160a01b038316610c315760405162461bcd60e51b815260206004820152601f60248201527f5472616e736665722066726f6d20746865207a65726f20616464726573733a006044820152606401610688565b6001600160a01b038216610c875760405162461bcd60e51b815260206004820152601c60248201527f5472616e7366657220746f20746865207a65726f2061646472657373000000006044820152606401610688565b6010546001600160a01b0384165f90815260116020526040902054610cac919061151f565b421015610cfb5760405162461bcd60e51b815260206004820152601b60248201527f436f6f6c646f776e20706572696f64206e6f7420656c617073656400000000006044820152606401610688565b6013546001600160a01b0384811691161480610d2457506013546001600160a01b038381169116145b15610d7b57600e54811115610d7b5760405162461bcd60e51b815260206004820152601e60248201527f45786365656473206d6178207472616e73616374696f6e20616d6f756e7400006044820152606401610688565b6013546001600160a01b03838116911614801590610dcb57507f00000000000000000000000000000000000000000000000000000000000000006001600160a01b0316826001600160a01b031614155b15610b7557600f5481610df2846001600160a01b03165f9081526020819052604090205490565b610dfc919061151f565b1115610b755760405162461bcd60e51b815260206004820152601960248201527f45786365656473206d61782077616c6c657420616d6f756e74000000000000006044820152606401610688565b5f33610e57858285611111565b610a09858585611187565b6013545f906001600160a01b0390811690841603610e955761271060075483610e8b9190611532565b6106339190611549565b6013546001600160a01b0390811690851603610ebc5761271060065483610e8b9190611532565b61271060085483610e8b9190611532565b5f6064600b5483610ede9190611532565b610ee89190611549565b90505f6064600c5484610efb9190611532565b610f059190611549565b90505f81610f13848661150c565b610f1d919061150c565b90508215610f2f57610f2f85846111e4565b8115610f4d57601554610f4d9086906001600160a01b031684611187565b8015610f6b57600954610f6b9086906001600160a01b031683611187565b60408051828152602081018490529081018490527fcb0a199f31ba43cb96d3536d9ee718087bf68830209ca5ac9a365073291db4b79060600160405180910390a15050505050565b6005546001600160a01b031633146106f45760405163118cdaa760e01b8152336004820152602401610688565b600580546001600160a01b038381166001600160a01b0319831681179093556040519116919082907f8be0079c531659141344cd1fd0a4f28419497f9722a3daafe3b4186f6b6457e0905f90a35050565b5f33610570818585611187565b6001600160a01b0384166110675760405163e602df0560e01b81525f6004820152602401610688565b6001600160a01b03831661109057604051634a1406b160e11b81525f6004820152602401610688565b6001600160a01b038085165f908152600160209081526040808320938716835292905220829055801561110b57826001600160a01b0316846001600160a01b03167f8c5be1e5ebec7d5bd14f71427d1e84f3dd0314c0f7b2291e5b200ac8c7c3b9258460405161110291815260200190565b60405180910390a35b50505050565b6001600160a01b038381165f908152600160209081526040808320938616835292905220545f1981101561110b578181101561117957604051637dc7a0d960e11b81526001600160a01b03841660048201526024810182905260448101839052606401610688565b61110b84848484035f61103e565b6001600160a01b0383166111b057604051634b637e8f60e11b81525f6004820152602401610688565b6001600160a01b0382166111d95760405163ec442f0560e01b81525f6004820152602401610688565b610b7583838361121c565b6001600160a01b03821661120d57604051634b637e8f60e11b81525f6004820152602401610688565b611218825f8361121c565b5050565b6001600160a01b038316611246578060025f82825461123b919061151f565b909155506112b69050565b6001600160a01b0383165f90815260208190526040902054818110156112985760405163391434e360e21b81526001600160a01b03851660048201526024810182905260448101839052606401610688565b6001600160a01b0384165f9081526020819052604090209082900390555b6001600160a01b0382166112d2576002805482900390556112f0565b6001600160a01b0382165f9081526020819052604090208054820190555b816001600160a01b0316836001600160a01b03167fddf252ad1be2c89b69c2b068fc378daa952ba7f163c4a11628f55a4df523b3ef8360405161133591815260200190565b60405180910390a3505050565b602081525f82518060208401528060208501604085015e5f604082850101526040601f19601f83011684010191505092915050565b80356001600160a01b038116811461138d575f5ffd5b919050565b5f5f604083850312156113a3575f5ffd5b6113ac83611377565b946020939093013593505050565b5f5f5f606084860312156113cc575f5ffd5b6113d584611377565b92506113e360208501611377565b929592945050506040919091013590565b5f60208284031215611404575f5ffd5b6106c982611377565b5f5f6040838503121561141e575f5ffd5b50508035926020909101359150565b5f5f5f6060848603121561143f575f5ffd5b505081359360208301359350604090920135919050565b5f5f60408385031215611467575f5ffd5b61147083611377565b915060208301358015158114611484575f5ffd5b809150509250929050565b5f5f604083850312156114a0575f5ffd5b6114a983611377565b91506114b760208401611377565b90509250929050565b600181811c908216806114d457607f821691505b6020821081036114f257634e487b7160e01b5f52602260045260245ffd5b50919050565b634e487b7160e01b5f52601160045260245ffd5b81810381811115610576576105766114f8565b80820180821115610576576105766114f8565b8082028115828204841417610576576105766114f8565b5f8261156357634e487b7160e01b5f52601260045260245ffd5b50049056fea26469706673582212203b3455181943aaa5a8bffdedf7394af5274ba0f512044c705ae036f9032693e864736f6c634300081c0033",
  "linkReferences": {},
  "deployedLinkReferences": {},
  "immutableReferences": {
    "9147": [
      {
        "length": 32,
        "start": 613
      },
      {
        "length": 32,
        "start": 3478
      }
    ]
  },
  "inputSourceName": "project/contracts/MeMeToken.sol",
  "buildInfoId": "solc-0_8_28-daf20f68ba4a6e2f7510aeffb66527c3acb69ee6"
}